:020000040800F2
:1000000060070020CD010008A10500088104000858
:100010009D0500087D020008DB0A000800000000C2
:100020000000000000000000000000004107000880
:100030008102000800000000290600085508000899
:10004000090B0008E7010008E7010008E7010008C4
:10005000E7010008E701000885020008E701000841
:10006000E7010008E7010008E7010008E7010008D0
:10007000E7010008E7010008E7010008E7010008C0
:10008000E7010008E7010008E7010008E7010008B0
:10009000E7010008E7010008E7010008ED02000899
:1000A000E7010008E7010008E7010008E701000890
:1000B000E7010008E7010008E7010008E701000880
:1000C000E7010008E7010008E7010008E701000870
:1000D000E7010008B9080008E7010008E701000887
:1000E000B5020008E7010008E7010008E701000881
:1000F000E7010008E7010008E7010008E701000840
:10010000E7010008E7010008E7010008E70100082F
:10011000E7010008E7010008E7010008E70100081F
:10012000E7010008E7010008E7010008E70100080F
:1001300000F002F800F03AF80AA090E8000C8244BF
:100140008344AAF10107DA4501D100F02FF8AFF29C
:10015000090EBAE80F0013F0010F18BFFB1A43F0A5
:1001600001031847040C0000240C0000103A24BFBF
:1001700078C878C1FAD8520724BF30C830C144BF0C
:1001800004680C607047000000230024002500264E
:10019000103A28BF78C1FBD8520728BF30C148BFEA
:1001A0000B6070471FB51FBD10B510BD00F033F8D0
:1001B0001146FFF7F7FF00F05FFD00F051F803B4C0
:1001C000FFF7F2FF03BC00F00BFD00000948804779
:1001D00009480047FEE7FEE7FEE7FEE7FEE7FEE729
:1001E000FEE7FEE7FEE7FEE704480549054A064B41
:1001F0007047000059080008310100086001002024
:1002000060070020600300206003002070477047F3
:10021000704770477047754600F02CF8AE460500F1
:100220006946534620F00700854618B020B5FFF711
:10023000DBFFBDE820404FF000064FF000074FF015
:1002400000084FF0000B21F00701AC46ACE8C009F4
:10025000ACE8C009ACE8C009ACE8C0098D467047FD
:1002600010B50446AFF300802046BDE81040FFF70C
:10027000A6BF000000487047FC00002000BFFEE75A
:100280007047000010B50A2000F0D0FC012108489A
:1002900000F0E9F820B100F035F900F045F903E08D
:1002A00000F026F900F038F9012000F037F810BD11
:1002B0000008014010B54FF4004000F035F888B157
:1002C0000A2000F0B3FC4FF40041074800F0CBF8DF
:1002D00010B900F029F901E000F01EF94FF40040D8
:1002E00000F01CF810BD00000008014010B52020EF
:1002F00000F01AF878B10A2000F098FC2021064896
:1003000000F0B1F810B900F0FDF801E000F0F0F8ED
:10031000202000F003F810BD0010014001490860E2
:100320007047000014040140014600200022074BE2
:100330001B6803EA0102054B14331B680B4013B121
:100340000AB1012000E000207047000000040140D5
:100350002DE9F0410246002500260020002300245C
:10036000002791F803C00CF00F0591F803C00CF0C2
:10037000100CBCF1000F03D091F802C04CEA050547
:1003800091F800C0BCF1000F31D0146800202BE0C0
:100390004FF0010C0CFA00F3B1F800C00CEA0306B0
:1003A0009E4220D183004FF00F0C0CFA03F7BC43A0
:1003B00005FA03FC4CEA040491F803C0BCF1280FD1
:1003C00006D14FF0010C0CFA00FCC2F814C00AE090
:1003D00091F803C0BCF1480F05D14FF0010C0CFAA5
:1003E00000FCC2F810C0401C0828D1D31460B1F83A
:1003F00000C0BCF1FF0F34DD546800202EE000F196
:10040000080C4FF0010808FA0CF3B1F800C00CEA30
:1004100003069E4221D183004FF00F0C0CFA03F724
:10042000BC4305FA03FC4CEA040491F803C0BCF198
:10043000280F05D100F1080C08FA0CF8C2F8148056
:1004400091F803C0BCF1480F07D100F1080C4FF040
:10045000010808FA0CF8C2F81080401C0828CED316
:100460005460BDE8F0810246002093680B400BB158
:10047000012000E000207047416170470161704732
:1004800000BFFEE708B50121042000F0DFF80121DC
:10049000102000F0DBF848208DF803002020ADF894
:1004A000000003208DF8020069460F48FFF750FF57
:1004B00048208DF803004FF40040ADF80000032001
:1004C0008DF8020069460948FFF742FF28208DF8A1
:1004D00003000120ADF8000003208DF802006946FA
:1004E0000248FFF735FF08BD001001400008014039
:1004F00010B54FF480710248FFF7C0FF10BD000037
:100500000008014010B54FF480710248FFF7B4FFB6
:1005100010BD00000008014010B504210148FFF79C
:10052000ADFF10BD0014014010B504210148FFF7D4
:10053000A3FF10BD0014014008B50121042000F004
:1005400085F80121202000F081F810208DF80300AB
:100550000001ADF8000003208DF8020069460D4847
:10056000FFF7F6FE4FF480710A48FFF787FF10206F
:100570008DF803000420ADF8000003208DF8020080
:1005800069460548FFF7E4FE04210348FFF776FFBC
:1005900008BD0000000801400014014000BFFEE754
:1005A0007047000070B5002100230F22C47804B307
:1005B000154C246804F4E064C4F5E064210AC1F138
:1005C0000403CA40447804FA03F1847814402143B8
:1005D00009010E4C0678A155047804F01F0501248A
:1005E000AC4005786D11AD0005F1E025C5F800417E
:1005F00009E0047804F01F050124AC40044D06789E
:10060000761145F8264070BD0CED00E000E400E0F6
:1006100080E100E002490143024A11607047000096
:100620000000FA050CED00E07047000029B1064A11
:10063000D2690243044BDA6104E0034AD26982437F
:10064000014BDA61704700000010024029B1064AF0
:1006500092690243044B9A6104E0034A926982431F
:10066000014B9A61704700000010024030B5002134
:100670000022002400232D4D6D6805F00C0121B1EE
:10068000042905D0082923D105E0294D056022E081
:10069000274D05601FE0254D6D6805F47012234D50
:1006A0006D6805F48034022505EB92421CB9214D9A
:1006B000554305600BE01D4D6D6805F400351DB117
:1006C0001C4D5543056002E0194D5543056002E09D
:1006D000174D056000BF00BF144D6D6805F0F001B7
:1006E0000909154D6B5C0568DD4045600F4D6D686F
:1006F00005F4E061090A104D6B5C4568DD408560DA
:100700000A4D6D6805F46051C90A0B4D6B5C456874
:10071000DD40C560054D6D6805F44041890B074D0E
:100720006B5CC568B5FBF3F5056130BD0010024098
:1007300000127A0000093D001E0000202E0000205B
:10074000704710B500F002F810BD00000CB5002095
:10075000019000903348006840F4803031490860CF
:1007600000BF3048006800F4003000900198401C41
:100770000190009818B90198B0F5A06FF1D12948FF
:10078000006800F4003010B10120009001E000206A
:1007900000900098012843D12348006840F01000E1
:1007A000214908600846006820F0030008600846F8
:1007B000006840F0020008601A4840681949486023
:1007C0000846406848600846406840F480604860D9
:1007D0000846406820F47C1048600846406840F4B1
:1007E000E81048600846006840F08070086000BF6C
:1007F0000C48006800F000700028F9D009484068F3
:1008000020F00300074948600846406840F00200B5
:10081000486000BF0348406800F00C000828F9D188
:100820000CBD00000010024000200240042808D146
:100830004FF0E021096941F004014FF0E02211611D
:1008400007E04FF0E021096921F004014FF0E022B8
:10085000116170477047000010B51348006840F000
:1008600001001149086008464068104908400E49D7
:100870004860084600680E4908400B490860084671
:10088000006820F4802008600846406820F4FE00DC
:1008900048604FF41F008860FFF753FF4FF000607F
:1008A0000449086010BD0000001002400000FFF87D
:1008B000FFFFF6FE08ED00E010B540F225511D489F
:1008C00000F04AF810B31B4800F002F9C4B21A480D
:1008D000008800F40040C8B91748008800F4804040
:1008E00060B10A2C03D000201349088020E0124890
:1008F000008840F400401049088019E00D2C06D112
:100900000D48008840F480400B49088010E00A48F8
:100910000088C0F30D0009490C5407480088401CAA
:100920000549088008460088C72801DD00200880A6
:1009300010BD0000003801401C00002034000020E1
:1009400021B1828942F40052828104E082894DF60D
:10095000FF731A408281704770B50246002400235D
:100960000025002040F66A16B14200D100BFC1F355
:10097000421501F01F03012606FA03F3012D02D1EF
:100980009689334006E0022D02D1168A334001E0F9
:10099000968A33400C12012606FA04F41688344075
:1009A00013B10CB1012000E0002070BDF0B503468A
:1009B000002400260025002040F66A17B94200D125
:1009C00000BF1846C1F3421401F01F06012707FAC1
:1009D00006F5012C01D10C3004E0022C01D11030BD
:1009E00000E014301AB107682F43076002E007687F
:1009F000AF430760F0BD00002DE9F04786B0054623
:100A00000E460024A24600BFA1460027B08900B1CF
:100A100000BF2F462C8A4CF6FF700440F088044338
:100A20002C82AC894EF6F3100440B088318908431B
:100A3000718908430443AC81AC8A4FF6FF400440FF
:100A4000B0890443AC8201A8FFF710FE1F4887421B
:100A500002D1DDF810A001E0DDF80CA0A88900F4B7
:100A6000004040B10AEBCA0000EB0A1031684900AF
:100A7000B0FBF1F807E00AEBCA0000EB0A1031689E
:100A80008900B0FBF1F86420B8FBF0F00401200904
:100A9000642101FB1089A88900F4004040B1322094
:100AA00000EBC900B0FBF1F000F00700044308E0E0
:100AB000322000EB09106421B0FBF1F000F00F00D0
:100AC00004432C8106B0BDE8F087000000380140E7
:100AD00001468888C0F30800704700BFFEE70000A9
:100AE0000020014908607047082C004040F0800158
:100AF000014A116070470000002C004001200149AC
:100B000008607047A480054210B50748007800F0DF
:100B10003FF8FFF7E5FF0548006808B9012000E04D
:100B200000200249086010BD32000020A0012142CF
:100B300070B504460D4616460C48007820400B4917
:100B400008700121C802FFF771FD304600F028F857
:100B5000284600F031F8FFF7C3FF00F009F8FFF76F
:100B6000CDFF02480078FFF7C1FF70BD32000020C2
:100B700008B500208DF8000001208DF80300022048
:100B80008DF801008DF802006846FFF70BFD08BDE7
:100B900000F07F01014A116070470000002C004006
:100BA0000021044A126822F4C0710143014A116015
:100BB00070470000042C004008B50021009107494F
:100BC000096821F07F01009100F07F01009A114334
:100BD0000091024A0099116008BD0000042C0040F9
:100BE000014600BF7047000010B56FF00400FFF72A
:100BF0001DFE0A4800680A49B0FBF1F00949087077
:100C00000846007800EB4001C1EBC0104FF6FF71C1
:100C100001EAC0000449088010BD00000000002067
:100C200000127A0014000020160000200146114A2C
:100C300012884A434FF0E0235A6100229A611A4613
:100C4000126942F001021A6100BF4FF0E022106900
:100C500000F001021AB100F48032002AF5D04FF002
:100C6000E022126922F001024FF0E0231A61002213
:100C70009A61704716000020FFF7B6FF4FF4A0609E
:100C8000FFF7C8FCFFF758FCFFF7FCFB4FF4E1301F
:100C900000F01AF80120094908600949C1F88801E3
:100CA000C820FFF7C3FF4FF4C0725F217F20FFF71A
:100CB0003FFF02E0002003490860FBE7A00121425A
:100CC000008022428881224210B586B0044601216C
:100CD00044F20400FFF7BAFC4FF40070ADF81400C2
:100CE00003208DF8160018208DF8170005A91C4860
:100CF000FFF72EFB4FF48060ADF8140004208DF850
:100D0000170005A91648FFF723FB25208DF80000E2
:100D100003208DF801008DF8020001208DF80300FA
:100D20006846FFF73FFC01940020ADF80800ADF8DD
:100D30000A00ADF80C00ADF810000C20ADF80E0064
:100D400001A90848FFF758FE012240F22551054845
:100D5000FFF72CFE01210348FFF7F2FD06B010BD9E
:100D60000008014000380140880D00080000002004
:100D7000340000006C010008BC0D000834000020A5
:100D80002C0700008801000800A24A0400000000AF
:100D9000000000000102030406070809000000002B
:100DA0000000000000000000000001020304010236
:0C0DB000030406070809020406087F007F
:04000005080001CD21
:00000001FF
