:020000040800F2
:1000000090060020CD010008D5040008B3030008C5
:10001000D10400087D0200086F0A000800000000FB
:10002000000000000000000000000000950600082D
:1000300081020008000000005D050008A907000813
:10004000E7010008E7010008E7010008E7010008F0
:10005000E7010008E7010008E7010008E7010008E0
:10006000E7010008E7010008E7010008E7010008D0
:10007000E7010008E7010008E7010008E7010008C0
:10008000E7010008E7010008E7010008E7010008B0
:10009000E7010008E7010008E7010008E7010008A0
:1000A000E7010008E7010008E7010008E701000890
:1000B000E7010008E7010008E7010008E701000880
:1000C000E7010008E7010008E7010008E701000870
:1000D000E70100080D080008E7010008E701000833
:1000E000E7010008E7010008E7010008E701000850
:1000F000E7010008E7010008E7010008E701000840
:10010000E7010008E7010008E7010008E70100082F
:10011000E7010008E7010008E7010008E70100081F
:10012000E7010008E7010008E7010008E70100080F
:1001300000F002F800F03AF80AA090E8000C8244BF
:100140008344AAF10107DA4501D100F02FF8AFF29C
:10015000090EBAE80F0013F0010F18BFFB1A43F0A5
:1001600001031847580B0000780B0000103A24BF19
:1001700078C878C1FAD8520724BF30C830C144BF0C
:1001800004680C607047000000230024002500264E
:10019000103A28BF78C1FBD8520728BF30C148BFEA
:1001A0000B6070471FB51FBD10B510BD00F033F8D0
:1001B0001146FFF7F7FF00F0FBFC00F051F803B425
:1001C000FFF7F2FF03BC00F054FC00000948804731
:1001D00009480047FEE7FEE7FEE7FEE7FEE7FEE729
:1001E000FEE7FEE7FEE7FEE704480549054A064B41
:1001F00070470000AD0700083101000890000020A2
:100200009006002090020020900200207047704766
:10021000704770477047754600F02CF8AE460500F1
:100220006946534620F00700854618B020B5FFF711
:10023000DBFFBDE820404FF000064FF000074FF015
:1002400000084FF0000B21F00701AC46ACE8C009F4
:10025000ACE8C009ACE8C009ACE8C0098D467047FD
:1002600010B50446AFF300802046BDE81040FFF70C
:10027000A6BF0000004870473000002000BFFEE726
:1002800070472DE9F041024600250026002000239A
:100290000024002791F803C00CF00F0591F803C06B
:1002A0000CF0100CBCF1000F03D091F802C04CEA26
:1002B000050591F800C0BCF1000F31D01468002092
:1002C0002BE04FF0010C0CFA00F3B1F800C00CEA7F
:1002D00003069E4220D183004FF00F0C0CFA03F767
:1002E000BC4305FA03FC4CEA040491F803C0BCF1DA
:1002F000280F06D14FF0010C0CFA00FCC2F814C014
:100300000AE091F803C0BCF1480F05D14FF0010C91
:100310000CFA00FCC2F810C0401C0828D1D31460AD
:10032000B1F800C0BCF1FF0F34DD546800202EE0AE
:1003300000F1080C4FF0010808FA0CF3B1F800C006
:100340000CEA03069E4221D183004FF00F0C0CFAF9
:1003500003F7BC4305FA03FC4CEA040491F803C01C
:10036000BCF1280F05D100F1080C08FA0CF8C2F80E
:10037000148091F803C0BCF1480F07D100F1080CBC
:100380004FF0010808FA0CF8C2F81080401C082849
:10039000CED35460BDE8F0810246002093680B4044
:1003A0000BB1012000E000207047416170470161FE
:1003B000704700BFFEE7000008B50121042000F0EF
:1003C000DFF80121102000F0DBF848208DF8030051
:1003D0002020ADF8000003208DF8020069460F4888
:1003E000FFF74FFF48208DF803004FF40040ADF8B1
:1003F000000003208DF8020069460948FFF741FF1D
:1004000028208DF803000120ADF8000003208DF8AE
:10041000020069460248FFF734FF08BD00100140A2
:100420000008014010B54FF480710248FFF7BFFF8C
:1004300010BD00000008014010B54FF48071024863
:10044000FFF7B3FF10BD00000008014010B5042104
:100450000148FFF7ACFF10BD0014014010B50421A6
:100460000148FFF7A2FF10BD0014014008B50121AB
:10047000042000F085F80121202000F081F81020F0
:100480008DF803000001ADF8000003208DF8020094
:1004900069460D48FFF7F5FE4FF480710A48FFF7F3
:1004A00086FF10208DF803000420ADF80000032023
:1004B0008DF8020069460548FFF7E3FE0421034872
:1004C000FFF775FF08BD000000080140001401405F
:1004D00000BFFEE77047000070B5002100230F2227
:1004E000C47804B3154C246804F4E064C4F5E064F3
:1004F000210AC1F10403CA40447804FA03F1847864
:100500001440214309010E4C0678A155047804F0EB
:100510001F050124AC4005786D11AD0005F1E02503
:10052000C5F8004109E0047804F01F050124AC403F
:10053000044D0678761145F8264070BD0CED00E0BC
:1005400000E400E080E100E002490143024A11605A
:10055000704700000000FA050CED00E07047000055
:1005600029B1064A12690243044B1A6104E0034AA6
:1005700012698243014B1A6170470000001002406B
:1005800029B1064A92690243044B9A6104E0034A86
:1005900092698243014B9A6170470000001002404B
:1005A00029B1064AD2680243044BDA6004E0034AE8
:1005B000D2688243014BDA607047000000100240AD
:1005C00030B500210022002400232D4D6D6805F078
:1005D0000C0121B1042905D0082923D105E0294DBA
:1005E000056022E0274D05601FE0254D6D6805F48C
:1005F0007012234D6D6805F48034022505EB92429C
:100600001CB9214D554305600BE01D4D6D6805F487
:1006100000351DB11C4D5543056002E0194D554391
:10062000056002E0174D056000BF00BF144D6D6806
:1006300005F0F0010909154D6B5C0568DD4045606A
:100640000F4D6D6805F4E061090A104D6B5C45685B
:10065000DD4085600A4D6D6805F46051C90A0B4D97
:100660006B5C4568DD40C560054D6D6805F4404133
:10067000890B074D6B5CC568B5FBF3F5056130BDB3
:100680000010024000127A0000093D00180000200E
:1006900028000020704710B500F002F810BD0000DF
:1006A0000CB50020019000903348006840F4803081
:1006B0003149086000BF3048006800F40030009005
:1006C0000198401C0190009818B90198B0F5A06FEE
:1006D000F1D12948006800F4003010B101200090E9
:1006E00001E0002000900098012843D123480068D1
:1006F00040F01000214908600846006820F003001F
:1007000008600846006840F0020008601A48406827
:10071000194948600846406848600846406840F407
:10072000806048600846406820F47C1048600846B5
:10073000406840F4E81048600846006840F0807067
:10074000086000BF0C48006800F000700028F9D075
:100750000948406820F0030007494860084640689F
:1007600040F00200486000BF0348406800F00C0001
:100770000828F9D10CBD0000001002400020024002
:10078000042808D14FF0E021096941F004014FF03D
:10079000E022116107E04FF0E021096921F0040136
:1007A0004FF0E022116170477047000010B5134808
:1007B000006840F00100114908600846406810498F
:1007C00008400E494860084600680E4908400B4939
:1007D00008600846006820F48020086008464068E9
:1007E00020F4FE0048604FF41F008860FFF753FFBD
:1007F0004FF000600449086010BD00000010024086
:100800000000FFF8FFFFF6FE08ED00E010B540F233
:100810002551064800F066F838B1044800F01EF98A
:10082000C4B22146014800F01EF910BD0038014055
:1008300021B1828942F40052828104E082894DF61E
:10084000FF731A408281704710B5044620488442E5
:1008500009D101218803FFF7A3FE00214FF4804056
:10086000FFF79EFE32E01B48844209D10121480473
:10087000FFF776FE00214FF40030FFF771FE25E010
:100880001548844209D101218804FFF769FE00213F
:100890004FF48020FFF764FE18E01048844209D12D
:1008A0000121C804FFF75CFE00214FF40020FFF790
:1008B00057FE0BE00A48844208D101210805FFF7E2
:1008C0004FFE00214FF48010FFF74AFE10BD0000DC
:1008D000003801400044004000480040004C004007
:1008E0000050004070B5024600240023002500207F
:1008F00040F66A16B14200D100BFC1F3421501F0C3
:100900001F03012606FA03F3012D02D19689334015
:1009100006E0022D02D1168A334001E0968A334068
:100920000C12012606FA04F41688344013B10CB1F7
:10093000012000E0002070BDF0B503460024002631
:100940000025002040F66A17B94200D100BF1846C2
:10095000C1F3421401F01F06012707FA06F5012C26
:1009600001D10C3004E0022C01D1103000E0143031
:100970001AB107682F43076002E00768AF430760BA
:10098000F0BD00002DE9F04786B005460E46002474
:10099000A24600BFA1460027B08900B100BF2F4684
:1009A0002C8A4CF6FF700440F08804432C82AC89FA
:1009B0004EF6F3100440B08831890843718908432A
:1009C0000443AC81AC8A4FF6FF400440B089044335
:1009D000AC8201A8FFF7F4FD1F48874202D1DDF881
:1009E00010A001E0DDF80CA0A88900F4004040B19F
:1009F0000AEBCA0000EB0A1031684900B0FBF1F8BD
:100A000007E00AEBCA0000EB0A1031688900B0FB6E
:100A1000F1F86420B8FBF0F004012009642101FB27
:100A20001089A88900F4004040B1322000EBC900D1
:100A3000B0FBF1F000F00700044308E0322000EBC7
:100A400009106421B0FBF1F000F00F0004432C8189
:100A500006B0BDE8F08700000038014001468888F4
:100A6000C0F308007047C1F308028280704700BFDE
:100A7000FEE7014600BF704710B56FF00400FFF7B6
:100A80007FFE0A4800680A49B0FBF1F00949087086
:100A90000846007800EB4001C1EBC0104FF6FF7133
:100AA00001EAC0000449088010BD000000000020D9
:100AB00000127A0014000020160000200146114A9E
:100AC00012884A434FF0E0235A6100229A611A4685
:100AD000126942F001021A6100BF4FF0E022106972
:100AE00000F001021AB100F48032002AF5D04FF074
:100AF000E022126922F001024FF0E0231A61002285
:100B00009A6170471600002010B5044614B1012008
:100B1000244908702348007868B320212248FFF751
:100B20003BFC58B14FF400412048FFF735FC28B199
:100B300001211E48FFF730FC01281CD10020194973
:100B400008706420FFF7BAFF20211748FFF724FC44
:100B500008B9012010BD4FF400411448FFF71CFCF8
:100B600008B90220F6E701211048FFF715FC01281B
:100B700015D10320EEE720210B48FFF70DFC0128DB
:100B80000DD1C1030948FFF707FC012807D1012156
:100B90000648FFF701FC10B9012002490870002047
:100BA000D8E700002C0000200010014000080140A0
:100BB000FFF762FF4FF4A060FFF7C6FCFFF756FC9B
:100BC000FFF7FAFB4FF4E13000F020F81CE00120C1
:100BD000FFF79AFF0446012C04D0022C05D0032C09
:100BE0000BD105E0FFF728FC0CE0FFF737FC09E02C
:100BF000FFF722FCFFF732FC04E0FFF713FCFFF7DE
:100C000025FC00BF00BF00BFE1E7000010B586B0C3
:100C10000446012144F20400FFF7B2FC2548FFF727
:100C200013FE4FF40070ADF8140003208DF8160089
:100C300018208DF8170005A91F48FFF722FB4FF475
:100C40008060ADF8140003208DF8160004208DF8A4
:100C5000170005A91848FFF714FB01940020ADF810
:100C60000800ADF80A00ADF80C000C20ADF80E003D
:100C70000020ADF8100001A90E48FFF783FE2520E3
:100C80008DF8000003208DF801008DF8020001208E
:100C90008DF803006846FFF71FFC012240F2255142
:100CA0000448FFF749FE01210248FFF7C1FD06B0E5
:100CB00010BD00000038014000080140DC0C0008B5
:100CC00000000020300000006C0100080C0D00083E
:100CD00030000020600600008801000800A24A04DD
:100CE00000000000000000000102030406070809DC
:100CF00000000000000000000102030401020304E0
:0C0D0000060708090204060801000000B4
:04000005080001CD21
:00000001FF
